{
  "contractName": "CoinSale",
  "abi": [
    {
      "inputs": [
        {
          "internalType": "contract MikaCoin",
          "name": "_coinContract",
          "type": "address"
        },
        {
          "internalType": "uint256",
          "name": "_coinPrice",
          "type": "uint256"
        }
      ],
      "stateMutability": "nonpayable",
      "type": "constructor"
    },
    {
      "anonymous": false,
      "inputs": [
        {
          "indexed": false,
          "internalType": "address",
          "name": "_buyer",
          "type": "address"
        },
        {
          "indexed": false,
          "internalType": "uint256",
          "name": "_amount",
          "type": "uint256"
        }
      ],
      "name": "Sell",
      "type": "event"
    },
    {
      "inputs": [],
      "name": "coinContract",
      "outputs": [
        {
          "internalType": "contract MikaCoin",
          "name": "",
          "type": "address"
        }
      ],
      "stateMutability": "view",
      "type": "function",
      "constant": true
    },
    {
      "inputs": [],
      "name": "coinPrice",
      "outputs": [
        {
          "internalType": "uint256",
          "name": "",
          "type": "uint256"
        }
      ],
      "stateMutability": "view",
      "type": "function",
      "constant": true
    },
    {
      "inputs": [],
      "name": "coinsSold",
      "outputs": [
        {
          "internalType": "uint256",
          "name": "",
          "type": "uint256"
        }
      ],
      "stateMutability": "view",
      "type": "function",
      "constant": true
    },
    {
      "inputs": [
        {
          "internalType": "uint256",
          "name": "_coinsPurchaseAmount",
          "type": "uint256"
        }
      ],
      "name": "buyCoins",
      "outputs": [],
      "stateMutability": "payable",
      "type": "function",
      "payable": true
    },
    {
      "inputs": [],
      "name": "endSale",
      "outputs": [],
      "stateMutability": "nonpayable",
      "type": "function"
    }
  ],
  "bytecode": "0x608060405234801561001057600080fd5b50604051610bca380380610bca833981810160405281019061003291906100eb565b336000806101000a81548173ffffffffffffffffffffffffffffffffffffffff021916908373ffffffffffffffffffffffffffffffffffffffff16021790555081600160006101000a81548173ffffffffffffffffffffffffffffffffffffffff021916908373ffffffffffffffffffffffffffffffffffffffff1602179055508060028190555050506101a3565b6000815190506100d081610175565b92915050565b6000815190506100e58161018c565b92915050565b600080604083850312156100fe57600080fd5b600061010c858286016100c1565b925050602061011d858286016100d6565b9150509250929050565b60006101328261014b565b9050919050565b600061014482610127565b9050919050565b600073ffffffffffffffffffffffffffffffffffffffff82169050919050565b6000819050919050565b61017e81610139565b811461018957600080fd5b50565b6101958161016b565b81146101a057600080fd5b50565b610a18806101b26000396000f3fe60806040526004361061004a5760003560e01c8063380d831b1461004f57806372dd52e3146100665780637a81450c14610091578063ad0f2916146100bc578063fe468196146100e7575b600080fd5b34801561005b57600080fd5b50610064610103565b005b34801561007257600080fd5b5061007b61034b565b60405161008891906107e6565b60405180910390f35b34801561009d57600080fd5b506100a6610371565b6040516100b39190610861565b60405180910390f35b3480156100c857600080fd5b506100d1610377565b6040516100de9190610861565b60405180910390f35b61010160048036038101906100fc91906105df565b61037d565b005b60008054906101000a900473ffffffffffffffffffffffffffffffffffffffff1673ffffffffffffffffffffffffffffffffffffffff163373ffffffffffffffffffffffffffffffffffffffff1614610191576040517f08c379a000000000000000000000000000000000000000000000000000000000815260040161018890610821565b60405180910390fd5b600160009054906101000a900473ffffffffffffffffffffffffffffffffffffffff1673ffffffffffffffffffffffffffffffffffffffff1663a9059cbb60008054906101000a900473ffffffffffffffffffffffffffffffffffffffff16600160009054906101000a900473ffffffffffffffffffffffffffffffffffffffff1673ffffffffffffffffffffffffffffffffffffffff166370a08231306040518263ffffffff1660e01b815260040161024b9190610779565b60206040518083038186803b15801561026357600080fd5b505afa158015610277573d6000803e3d6000fd5b505050506040513d601f19601f8201168201806040525081019061029b9190610608565b6040518363ffffffff1660e01b81526004016102b89291906107bd565b602060405180830381600087803b1580156102d257600080fd5b505af11580156102e6573d6000803e3d6000fd5b505050506040513d601f19601f8201168201806040525081019061030a91906105b6565b610349576040517f08c379a000000000000000000000000000000000000000000000000000000000815260040161034090610841565b60405180910390fd5b565b600160009054906101000a900473ffffffffffffffffffffffffffffffffffffffff1681565b60035481565b60025481565b80600160009054906101000a900473ffffffffffffffffffffffffffffffffffffffff1673ffffffffffffffffffffffffffffffffffffffff166370a08231306040518263ffffffff1660e01b81526004016103d99190610779565b60206040518083038186803b1580156103f157600080fd5b505afa158015610405573d6000803e3d6000fd5b505050506040513d601f19601f820116820180604052508101906104299190610608565b101561046a576040517f08c379a000000000000000000000000000000000000000000000000000000000815260040161046190610801565b60405180910390fd5b600160009054906101000a900473ffffffffffffffffffffffffffffffffffffffff1673ffffffffffffffffffffffffffffffffffffffff1663a9059cbb33836040518363ffffffff1660e01b81526004016104c7929190610794565b602060405180830381600087803b1580156104e157600080fd5b505af11580156104f5573d6000803e3d6000fd5b505050506040513d601f19601f8201168201806040525081019061051991906105b6565b61052257600080fd5b8060036000828254610534919061088d565b925050819055507f5e5e995ce3133561afceaa51a9a154d5db228cd7525d34df5185582c18d3df09338260405161056c9291906107bd565b60405180910390a150565b600081519050610586816109b4565b92915050565b60008135905061059b816109cb565b92915050565b6000815190506105b0816109cb565b92915050565b6000602082840312156105c857600080fd5b60006105d684828501610577565b91505092915050565b6000602082840312156105f157600080fd5b60006105ff8482850161058c565b91505092915050565b60006020828403121561061a57600080fd5b6000610628848285016105a1565b91505092915050565b61063a8161092b565b82525050565b610649816108e3565b82525050565b6106588161093d565b82525050565b600061066b602f8361087c565b91507f636f6e74726163742062616c616e6365203c20616d6f756e742072657175657360008301527f74656420746f20707572636861736500000000000000000000000000000000006020830152604082019050919050565b60006106d1601f8361087c565b91507f4d7573742062652061646d696e20746f20656e6420746f6b656e2073616c65006000830152602082019050919050565b600061071160228361087c565b91507f436f756c64206e6f74207472616e7366657220746f6b656e7320746f2061646d60008301527f696e0000000000000000000000000000000000000000000000000000000000006020830152604082019050919050565b61077381610921565b82525050565b600060208201905061078e6000830184610640565b92915050565b60006040820190506107a96000830185610631565b6107b6602083018461076a565b9392505050565b60006040820190506107d26000830185610640565b6107df602083018461076a565b9392505050565b60006020820190506107fb600083018461064f565b92915050565b6000602082019050818103600083015261081a8161065e565b9050919050565b6000602082019050818103600083015261083a816106c4565b9050919050565b6000602082019050818103600083015261085a81610704565b9050919050565b6000602082019050610876600083018461076a565b92915050565b600082825260208201905092915050565b600061089882610921565b91506108a383610921565b9250827fffffffffffffffffffffffffffffffffffffffffffffffffffffffffffffffff038211156108d8576108d7610985565b5b828201905092915050565b60006108ee82610901565b9050919050565b60008115159050919050565b600073ffffffffffffffffffffffffffffffffffffffff82169050919050565b6000819050919050565b600061093682610961565b9050919050565b60006109488261094f565b9050919050565b600061095a82610901565b9050919050565b600061096c82610973565b9050919050565b600061097e82610901565b9050919050565b7f4e487b7100000000000000000000000000000000000000000000000000000000600052601160045260246000fd5b6109bd816108f5565b81146109c857600080fd5b50565b6109d481610921565b81146109df57600080fd5b5056fea2646970667358221220f723c8f5971046ba1fb8371d7b59c114f331f9768cca4b8ddae567593f74c92364736f6c63430008000033",
  "immutableReferences": {},
  "source": "// SPDX-License-Identifier: GPL-3.0\r\npragma solidity ^0.8.0;\r\n\r\nimport './MikaCoin.sol';\r\n\r\n/**\r\n * provision tokens to token sale contract\r\n * set a token price in wei\r\n * assign an admin \r\n * buy tokens \r\n * end sale\r\n */\r\n\r\ncontract CoinSale {\r\n\r\n    address private admin;  // address of person who deployed contract\r\n    MikaCoin public coinContract;  // contract datatype\r\n    uint256 public coinPrice;\r\n    uint256 public coinsSold;\r\n\r\n    event Sell(address _buyer, uint256 _amount);\r\n\r\n    /**\r\n     * @dev Assigns admin and allows admin to end token sale \r\n     *\r\n     * @param _coinContract: pass MikaCoin contract so can use its functions \r\n     * @param _coinPrice: price of token from 2_deploy_contracts\r\n     * Reference to MikaCoin so portion of created tokens can \r\n     * be assigned to the token sale \r\n     */\r\n    constructor(MikaCoin _coinContract, uint256 _coinPrice) {\r\n        admin = msg.sender;\r\n        coinContract = _coinContract;\r\n        coinPrice = _coinPrice;\r\n    }\r\n\r\n    /**\r\n     * function taken from ds-math on github\r\n     */\r\n    function mul(uint x, uint y) internal pure returns (uint z) {\r\n        require(y == 0 || (z = x * y) / y == x, \"ds-math-mul-overflow\");\r\n    }\r\n    \r\n\r\n    /**\r\n     * @dev allows address to purchase tokens\r\n     * \r\n     * @param _coinsPurchaseAmount number of tokens to be purchased\r\n     */\r\n    function buyCoins(uint256 _coinsPurchaseAmount) public payable {\r\n\r\n        // buy tokens for correct amount of wei\r\n        //require(msg.value == mul(_coinsPurchaseAmount, coinPrice), \"incorrect amount of wei\");  // need function to handle safe multiplication\r\n        // require the contract has enough tokens \r\n        require(coinContract.balanceOf(address(this)) >= _coinsPurchaseAmount, \"contract balance < amount requested to purchase\");\r\n        // transfer tokens to caller address\r\n        require(coinContract.transfer(payable(msg.sender), _coinsPurchaseAmount));\r\n\r\n        coinsSold += _coinsPurchaseAmount;\r\n\r\n        emit Sell(msg.sender, _coinsPurchaseAmount);\r\n    }\r\n\r\n    /**\r\n     * @dev allows admin to end token sale \r\n     * \r\n     */\r\n    function endSale() public {\r\n        require(msg.sender == admin, 'Must be admin to end token sale');\r\n        require(coinContract.transfer(admin, coinContract.balanceOf(address(this))), 'Could not transfer tokens to admin');\r\n    }\r\n}",
  "sourcePath": "C:/Users/zach-/Documents/blockchain/mika-coin/contracts/CoinSale.sol",
  "compiler": {
    "name": "solc",
    "version": "0.8.0+commit.c7dfd78e.Emscripten.clang"
  },
  "schemaVersion": "3.3.4",
  "updatedAt": "2021-04-19T14:20:06.367Z",
  "networkType": "ethereum",
  "devdoc": {
    "kind": "dev",
    "methods": {
      "buyCoins(uint256)": {
        "details": "allows address to purchase tokens ",
        "params": {
          "_coinsPurchaseAmount": "number of tokens to be purchased"
        }
      },
      "constructor": {
        "details": "Assigns admin and allows admin to end token sale ",
        "params": {
          "_coinContract": ": pass MikaCoin contract so can use its functions ",
          "_coinPrice": ": price of token from 2_deploy_contracts Reference to MikaCoin so portion of created tokens can  be assigned to the token sale "
        }
      },
      "endSale()": {
        "details": "allows admin to end token sale  "
      }
    },
    "version": 1
  },
  "userdoc": {
    "kind": "user",
    "methods": {},
    "notice": "provision tokens to token sale contract set a token price in wei assign an admin  buy tokens  end sale",
    "version": 1
  }
}