{
  "contractName": "CoinSale",
  "abi": [
    {
      "inputs": [
        {
          "internalType": "contract MikaCoin",
          "name": "_coinContract",
          "type": "address"
        },
        {
          "internalType": "uint256",
          "name": "_coinPrice",
          "type": "uint256"
        }
      ],
      "stateMutability": "nonpayable",
      "type": "constructor"
    },
    {
      "anonymous": false,
      "inputs": [
        {
          "indexed": false,
          "internalType": "address",
          "name": "_buyer",
          "type": "address"
        },
        {
          "indexed": false,
          "internalType": "uint256",
          "name": "_amount",
          "type": "uint256"
        }
      ],
      "name": "Sell",
      "type": "event"
    },
    {
      "inputs": [],
      "name": "coinContract",
      "outputs": [
        {
          "internalType": "contract MikaCoin",
          "name": "",
          "type": "address"
        }
      ],
      "stateMutability": "view",
      "type": "function",
      "constant": true
    },
    {
      "inputs": [],
      "name": "coinPrice",
      "outputs": [
        {
          "internalType": "uint256",
          "name": "",
          "type": "uint256"
        }
      ],
      "stateMutability": "view",
      "type": "function",
      "constant": true
    },
    {
      "inputs": [],
      "name": "coinsSold",
      "outputs": [
        {
          "internalType": "uint256",
          "name": "",
          "type": "uint256"
        }
      ],
      "stateMutability": "view",
      "type": "function",
      "constant": true
    },
    {
      "inputs": [
        {
          "internalType": "uint256",
          "name": "_coinsPurchaseAmount",
          "type": "uint256"
        }
      ],
      "name": "buyCoins",
      "outputs": [],
      "stateMutability": "payable",
      "type": "function",
      "payable": true
    }
  ],
  "bytecode": "0x608060405234801561001057600080fd5b506040516107f73803806107f7833981810160405281019061003291906100eb565b336000806101000a81548173ffffffffffffffffffffffffffffffffffffffff021916908373ffffffffffffffffffffffffffffffffffffffff16021790555081600160006101000a81548173ffffffffffffffffffffffffffffffffffffffff021916908373ffffffffffffffffffffffffffffffffffffffff1602179055508060028190555050506101a3565b6000815190506100d081610175565b92915050565b6000815190506100e58161018c565b92915050565b600080604083850312156100fe57600080fd5b600061010c858286016100c1565b925050602061011d858286016100d6565b9150509250929050565b60006101328261014b565b9050919050565b600061014482610127565b9050919050565b600073ffffffffffffffffffffffffffffffffffffffff82169050919050565b6000819050919050565b61017e81610139565b811461018957600080fd5b50565b6101958161016b565b81146101a057600080fd5b50565b610645806101b26000396000f3fe60806040526004361061003f5760003560e01c806372dd52e3146100445780637a81450c1461006f578063ad0f29161461009a578063fe468196146100c5575b600080fd5b34801561005057600080fd5b506100596100e1565b60405161006691906103f2565b60405180910390f35b34801561007b57600080fd5b50610084610107565b604051610091919061042d565b60405180910390f35b3480156100a657600080fd5b506100af61010d565b6040516100bc919061042d565b60405180910390f35b6100df60048036038101906100da91906102ef565b610113565b005b600160009054906101000a900473ffffffffffffffffffffffffffffffffffffffff1681565b60035481565b60025481565b61011f81600254610258565b341461012a57600080fd5b80600160009054906101000a900473ffffffffffffffffffffffffffffffffffffffff1673ffffffffffffffffffffffffffffffffffffffff166370a08231600160009054906101000a900473ffffffffffffffffffffffffffffffffffffffff166040518263ffffffff1660e01b81526004016101a891906103ae565b60206040518083038186803b1580156101c057600080fd5b505afa1580156101d4573d6000803e3d6000fd5b505050506040513d601f19601f820116820180604052508101906101f89190610318565b101561020357600080fd5b80600360008282546102159190610459565b925050819055507f5e5e995ce3133561afceaa51a9a154d5db228cd7525d34df5185582c18d3df09338260405161024d9291906103c9565b60405180910390a150565b60008082148061028057508282838561027191906104e0565b92508261027e91906104af565b145b6102bf576040517f08c379a00000000000000000000000000000000000000000000000000000000081526004016102b69061040d565b60405180910390fd5b92915050565b6000813590506102d4816105f8565b92915050565b6000815190506102e9816105f8565b92915050565b60006020828403121561030157600080fd5b600061030f848285016102c5565b91505092915050565b60006020828403121561032a57600080fd5b6000610338848285016102da565b91505092915050565b61034a8161053a565b82525050565b61035981610576565b82525050565b600061036c601483610448565b91507f64732d6d6174682d6d756c2d6f766572666c6f770000000000000000000000006000830152602082019050919050565b6103a88161056c565b82525050565b60006020820190506103c36000830184610341565b92915050565b60006040820190506103de6000830185610341565b6103eb602083018461039f565b9392505050565b60006020820190506104076000830184610350565b92915050565b600060208201905081810360008301526104268161035f565b9050919050565b6000602082019050610442600083018461039f565b92915050565b600082825260208201905092915050565b60006104648261056c565b915061046f8361056c565b9250827fffffffffffffffffffffffffffffffffffffffffffffffffffffffffffffffff038211156104a4576104a361059a565b5b828201905092915050565b60006104ba8261056c565b91506104c58361056c565b9250826104d5576104d46105c9565b5b828204905092915050565b60006104eb8261056c565b91506104f68361056c565b9250817fffffffffffffffffffffffffffffffffffffffffffffffffffffffffffffffff048311821515161561052f5761052e61059a565b5b828202905092915050565b60006105458261054c565b9050919050565b600073ffffffffffffffffffffffffffffffffffffffff82169050919050565b6000819050919050565b600061058182610588565b9050919050565b60006105938261054c565b9050919050565b7f4e487b7100000000000000000000000000000000000000000000000000000000600052601160045260246000fd5b7f4e487b7100000000000000000000000000000000000000000000000000000000600052601260045260246000fd5b6106018161056c565b811461060c57600080fd5b5056fea2646970667358221220d1acae74d069d695a19a45d16e45b3e5a7f398f5d2324c725b5732693158cfb364736f6c63430008000033",
  "immutableReferences": {},
  "source": "// SPDX-License-Identifier: GPL-3.0\r\npragma solidity ^0.8.0;\r\n\r\nimport './MikaCoin.sol';\r\n\r\n/**\r\n * provision tokens to token sale contract\r\n * set a token price in wei\r\n * assign an admin \r\n * buy tokens \r\n * end sale\r\n */\r\n\r\ncontract CoinSale {\r\n\r\n    address private admin;  // address of person who deployed contract\r\n    MikaCoin public coinContract;  // contract datatype\r\n    uint256 public coinPrice;\r\n    uint256 public coinsSold;\r\n\r\n    event Sell(address _buyer, uint256 _amount);\r\n\r\n    /**\r\n     * @dev Assigns admin and allows admin to end token sale \r\n     *\r\n     * @param _coinContract: pass MikaCoin contract so can use its functions \r\n     * @param _coinPrice: price of token from 2_deploy_contracts\r\n     * Reference to MikaCoin so portion of created tokens can \r\n     * be assigned to the token sale \r\n     */\r\n    constructor(MikaCoin _coinContract, uint256 _coinPrice) {\r\n        admin = msg.sender;\r\n        coinContract = _coinContract;\r\n        coinPrice = _coinPrice;\r\n    }\r\n\r\n    /**\r\n     * function taken from ds-math on github\r\n     */\r\n    function mul(uint x, uint y) internal pure returns (uint z) {\r\n        require(y == 0 || (z = x * y) / y == x, \"ds-math-mul-overflow\");\r\n    }\r\n    \r\n\r\n    /**\r\n     * @dev allows address to purchase tokens\r\n     * \r\n     * @param _coinsPurchaseAmount number of tokens to be purchased\r\n     */\r\n    function buyCoins(uint256 _coinsPurchaseAmount) public payable {\r\n\r\n        // buy tokens for correct amount of wei\r\n        require(msg.value == mul(_coinsPurchaseAmount, coinPrice));  // need function to handle safe multiplication\r\n        // require the contract has enough tokens \r\n        require(coinContract.balanceOf(address(coinContract)) >= _coinsPurchaseAmount);\r\n\r\n        coinsSold += _coinsPurchaseAmount;\r\n\r\n        emit Sell(msg.sender, _coinsPurchaseAmount);\r\n        \r\n    }\r\n}",
  "sourcePath": "C:/Users/zach-/Documents/blockchain/mika-coin/contracts/CoinSale.sol",
  "compiler": {
    "name": "solc",
    "version": "0.8.0+commit.c7dfd78e.Emscripten.clang"
  },
  "schemaVersion": "3.3.4",
  "updatedAt": "2021-04-16T19:17:18.982Z",
  "networkType": "ethereum",
  "devdoc": {
    "kind": "dev",
    "methods": {
      "buyCoins(uint256)": {
        "details": "allows address to purchase tokens ",
        "params": {
          "_coinsPurchaseAmount": "number of tokens to be purchased"
        }
      },
      "constructor": {
        "details": "Assigns admin and allows admin to end token sale ",
        "params": {
          "_coinContract": ": pass MikaCoin contract so can use its functions ",
          "_coinPrice": ": price of token from 2_deploy_contracts Reference to MikaCoin so portion of created tokens can  be assigned to the token sale "
        }
      }
    },
    "version": 1
  },
  "userdoc": {
    "kind": "user",
    "methods": {},
    "notice": "provision tokens to token sale contract set a token price in wei assign an admin  buy tokens  end sale",
    "version": 1
  }
}