{
  "contractName": "MikaCoin",
  "abi": [
    {
      "inputs": [
        {
          "internalType": "string",
          "name": "_name",
          "type": "string"
        },
        {
          "internalType": "string",
          "name": "_symbol",
          "type": "string"
        },
        {
          "internalType": "uint256",
          "name": "_totalSupply",
          "type": "uint256"
        }
      ],
      "stateMutability": "nonpayable",
      "type": "constructor"
    },
    {
      "inputs": [],
      "name": "name",
      "outputs": [
        {
          "internalType": "string",
          "name": "",
          "type": "string"
        }
      ],
      "stateMutability": "view",
      "type": "function",
      "constant": true
    },
    {
      "inputs": [],
      "name": "symbol",
      "outputs": [
        {
          "internalType": "string",
          "name": "",
          "type": "string"
        }
      ],
      "stateMutability": "view",
      "type": "function",
      "constant": true
    },
    {
      "inputs": [],
      "name": "totalSupply",
      "outputs": [
        {
          "internalType": "uint256",
          "name": "",
          "type": "uint256"
        }
      ],
      "stateMutability": "view",
      "type": "function",
      "constant": true
    }
  ],
  "bytecode": "0x608060405234801561001057600080fd5b506040516106aa3803806106aa8339818101604052810190610032919061018f565b826000908051906020019061004892919061006f565b50816001908051906020019061005f92919061006f565b5080600281905550505050610353565b82805461007b906102ac565b90600052602060002090601f01602090048101928261009d57600085556100e4565b82601f106100b657805160ff19168380011785556100e4565b828001600101855582156100e4579182015b828111156100e35782518255916020019190600101906100c8565b5b5090506100f191906100f5565b5090565b5b8082111561010e5760008160009055506001016100f6565b5090565b60006101256101208461023f565b61020e565b90508281526020810184848401111561013d57600080fd5b610148848285610279565b509392505050565b600082601f83011261016157600080fd5b8151610171848260208601610112565b91505092915050565b6000815190506101898161033c565b92915050565b6000806000606084860312156101a457600080fd5b600084015167ffffffffffffffff8111156101be57600080fd5b6101ca86828701610150565b935050602084015167ffffffffffffffff8111156101e757600080fd5b6101f386828701610150565b92505060406102048682870161017a565b9150509250925092565b6000604051905081810181811067ffffffffffffffff821117156102355761023461030d565b5b8060405250919050565b600067ffffffffffffffff82111561025a5761025961030d565b5b601f19601f8301169050602081019050919050565b6000819050919050565b60005b8381101561029757808201518184015260208101905061027c565b838111156102a6576000848401525b50505050565b600060028204905060018216806102c457607f821691505b602082108114156102d8576102d76102de565b5b50919050565b7f4e487b7100000000000000000000000000000000000000000000000000000000600052602260045260246000fd5b7f4e487b7100000000000000000000000000000000000000000000000000000000600052604160045260246000fd5b6103458161026f565b811461035057600080fd5b50565b610348806103626000396000f3fe608060405234801561001057600080fd5b50600436106100415760003560e01c806306fdde031461004657806318160ddd1461006457806395d89b4114610082575b600080fd5b61004e6100a0565b60405161005b919061020a565b60405180910390f35b61006c61012e565b604051610079919061022c565b60405180910390f35b61008a610134565b604051610097919061020a565b60405180910390f35b600080546100ad906102a0565b80601f01602080910402602001604051908101604052809291908181526020018280546100d9906102a0565b80156101265780601f106100fb57610100808354040283529160200191610126565b820191906000526020600020905b81548152906001019060200180831161010957829003601f168201915b505050505081565b60025481565b60018054610141906102a0565b80601f016020809104026020016040519081016040528092919081815260200182805461016d906102a0565b80156101ba5780601f1061018f576101008083540402835291602001916101ba565b820191906000526020600020905b81548152906001019060200180831161019d57829003601f168201915b505050505081565b60006101cd82610247565b6101d78185610252565b93506101e781856020860161026d565b6101f081610301565b840191505092915050565b61020481610263565b82525050565b6000602082019050818103600083015261022481846101c2565b905092915050565b600060208201905061024160008301846101fb565b92915050565b600081519050919050565b600082825260208201905092915050565b6000819050919050565b60005b8381101561028b578082015181840152602081019050610270565b8381111561029a576000848401525b50505050565b600060028204905060018216806102b857607f821691505b602082108114156102cc576102cb6102d2565b5b50919050565b7f4e487b7100000000000000000000000000000000000000000000000000000000600052602260045260246000fd5b6000601f19601f830116905091905056fea2646970667358221220ee9f91af30ee07d8b3124229805c74aa8fd8cbd1b0cda35fd74aff3e5467a5e664736f6c63430008000033",
  "immutableReferences": {},
  "source": "// SPDX-License-Identifier: GPL-3.0\r\npragma solidity ^0.8.0;\r\n\r\ncontract MikaCoin {\r\n    \r\n    string public name;\r\n    string public symbol;\r\n    uint256 public totalSupply;\r\n    \r\n    /**\r\n     * @dev Sets the values for {name} and {symbol}.\r\n     *\r\n     * These values are immutable: they can only be set once during\r\n     * construction.\r\n     */\r\n    constructor(string memory _name, string memory _symbol, uint256 _totalSupply) {\r\n        name = _name;\r\n        symbol = _symbol;\r\n        totalSupply = _totalSupply;\r\n    }\r\n}",
  "sourcePath": "C:/Users/zach-/Documents/blockchain/mika-coin/contracts/MikaCoin.sol",
  "compiler": {
    "name": "solc",
    "version": "0.8.0+commit.c7dfd78e.Emscripten.clang"
  },
  "schemaVersion": "3.3.4",
  "updatedAt": "2021-04-15T17:02:09.886Z",
  "networkType": "ethereum",
  "devdoc": {
    "kind": "dev",
    "methods": {
      "constructor": {
        "details": "Sets the values for {name} and {symbol}. These values are immutable: they can only be set once during construction."
      }
    },
    "version": 1
  },
  "userdoc": {
    "kind": "user",
    "methods": {},
    "version": 1
  }
}